{
  "_format": "hh-sol-artifact-1",
  "contractName": "NFT",
  "sourceName": "contracts/NFT.sol",
  "abi": [
    {
      "inputs": [
        {
          "internalType": "address",
          "name": "marketplaceAddress",
          "type": "address"
        }
      ],
      "stateMutability": "nonpayable",
      "type": "constructor"
    },
    {
      "anonymous": false,
      "inputs": [
        {
          "indexed": true,
          "internalType": "address",
          "name": "owner",
          "type": "address"
        },
        {
          "indexed": true,
          "internalType": "address",
          "name": "approved",
          "type": "address"
        },
        {
          "indexed": true,
          "internalType": "uint256",
          "name": "tokenId",
          "type": "uint256"
        }
      ],
      "name": "Approval",
      "type": "event"
    },
    {
      "anonymous": false,
      "inputs": [
        {
          "indexed": true,
          "internalType": "address",
          "name": "owner",
          "type": "address"
        },
        {
          "indexed": true,
          "internalType": "address",
          "name": "operator",
          "type": "address"
        },
        {
          "indexed": false,
          "internalType": "bool",
          "name": "approved",
          "type": "bool"
        }
      ],
      "name": "ApprovalForAll",
      "type": "event"
    },
    {
      "anonymous": false,
      "inputs": [
        {
          "indexed": true,
          "internalType": "address",
          "name": "from",
          "type": "address"
        },
        {
          "indexed": true,
          "internalType": "address",
          "name": "to",
          "type": "address"
        },
        {
          "indexed": true,
          "internalType": "uint256",
          "name": "tokenId",
          "type": "uint256"
        }
      ],
      "name": "Transfer",
      "type": "event"
    },
    {
      "inputs": [
        {
          "internalType": "address",
          "name": "to",
          "type": "address"
        },
        {
          "internalType": "uint256",
          "name": "tokenId",
          "type": "uint256"
        }
      ],
      "name": "approve",
      "outputs": [],
      "stateMutability": "nonpayable",
      "type": "function"
    },
    {
      "inputs": [
        {
          "internalType": "address",
          "name": "owner",
          "type": "address"
        }
      ],
      "name": "balanceOf",
      "outputs": [
        {
          "internalType": "uint256",
          "name": "",
          "type": "uint256"
        }
      ],
      "stateMutability": "view",
      "type": "function"
    },
    {
      "inputs": [
        {
          "internalType": "string",
          "name": "thisTokenURI",
          "type": "string"
        }
      ],
      "name": "createToken",
      "outputs": [
        {
          "internalType": "uint256",
          "name": "",
          "type": "uint256"
        }
      ],
      "stateMutability": "nonpayable",
      "type": "function"
    },
    {
      "inputs": [
        {
          "internalType": "uint256",
          "name": "tokenId",
          "type": "uint256"
        }
      ],
      "name": "getApproved",
      "outputs": [
        {
          "internalType": "address",
          "name": "",
          "type": "address"
        }
      ],
      "stateMutability": "view",
      "type": "function"
    },
    {
      "inputs": [
        {
          "internalType": "address",
          "name": "owner",
          "type": "address"
        },
        {
          "internalType": "address",
          "name": "operator",
          "type": "address"
        }
      ],
      "name": "isApprovedForAll",
      "outputs": [
        {
          "internalType": "bool",
          "name": "",
          "type": "bool"
        }
      ],
      "stateMutability": "view",
      "type": "function"
    },
    {
      "inputs": [],
      "name": "name",
      "outputs": [
        {
          "internalType": "string",
          "name": "",
          "type": "string"
        }
      ],
      "stateMutability": "view",
      "type": "function"
    },
    {
      "inputs": [
        {
          "internalType": "uint256",
          "name": "tokenId",
          "type": "uint256"
        }
      ],
      "name": "ownerOf",
      "outputs": [
        {
          "internalType": "address",
          "name": "",
          "type": "address"
        }
      ],
      "stateMutability": "view",
      "type": "function"
    },
    {
      "inputs": [
        {
          "internalType": "address",
          "name": "from",
          "type": "address"
        },
        {
          "internalType": "address",
          "name": "to",
          "type": "address"
        },
        {
          "internalType": "uint256",
          "name": "tokenId",
          "type": "uint256"
        }
      ],
      "name": "safeTransferFrom",
      "outputs": [],
      "stateMutability": "nonpayable",
      "type": "function"
    },
    {
      "inputs": [
        {
          "internalType": "address",
          "name": "from",
          "type": "address"
        },
        {
          "internalType": "address",
          "name": "to",
          "type": "address"
        },
        {
          "internalType": "uint256",
          "name": "tokenId",
          "type": "uint256"
        },
        {
          "internalType": "bytes",
          "name": "_data",
          "type": "bytes"
        }
      ],
      "name": "safeTransferFrom",
      "outputs": [],
      "stateMutability": "nonpayable",
      "type": "function"
    },
    {
      "inputs": [
        {
          "internalType": "address",
          "name": "operator",
          "type": "address"
        },
        {
          "internalType": "bool",
          "name": "approved",
          "type": "bool"
        }
      ],
      "name": "setApprovalForAll",
      "outputs": [],
      "stateMutability": "nonpayable",
      "type": "function"
    },
    {
      "inputs": [
        {
          "internalType": "bytes4",
          "name": "interfaceId",
          "type": "bytes4"
        }
      ],
      "name": "supportsInterface",
      "outputs": [
        {
          "internalType": "bool",
          "name": "",
          "type": "bool"
        }
      ],
      "stateMutability": "view",
      "type": "function"
    },
    {
      "inputs": [],
      "name": "symbol",
      "outputs": [
        {
          "internalType": "string",
          "name": "",
          "type": "string"
        }
      ],
      "stateMutability": "view",
      "type": "function"
    },
    {
      "inputs": [
        {
          "internalType": "uint256",
          "name": "index",
          "type": "uint256"
        }
      ],
      "name": "tokenByIndex",
      "outputs": [
        {
          "internalType": "uint256",
          "name": "",
          "type": "uint256"
        }
      ],
      "stateMutability": "view",
      "type": "function"
    },
    {
      "inputs": [
        {
          "internalType": "address",
          "name": "owner",
          "type": "address"
        },
        {
          "internalType": "uint256",
          "name": "index",
          "type": "uint256"
        }
      ],
      "name": "tokenOfOwnerByIndex",
      "outputs": [
        {
          "internalType": "uint256",
          "name": "",
          "type": "uint256"
        }
      ],
      "stateMutability": "view",
      "type": "function"
    },
    {
      "inputs": [
        {
          "internalType": "uint256",
          "name": "tokenId",
          "type": "uint256"
        }
      ],
      "name": "tokenURI",
      "outputs": [
        {
          "internalType": "string",
          "name": "",
          "type": "string"
        }
      ],
      "stateMutability": "view",
      "type": "function"
    },
    {
      "inputs": [],
      "name": "totalSupply",
      "outputs": [
        {
          "internalType": "uint256",
          "name": "",
          "type": "uint256"
        }
      ],
      "stateMutability": "view",
      "type": "function"
    },
    {
      "inputs": [
        {
          "internalType": "address",
          "name": "from",
          "type": "address"
        },
        {
          "internalType": "address",
          "name": "to",
          "type": "address"
        },
        {
          "internalType": "uint256",
          "name": "tokenId",
          "type": "uint256"
        }
      ],
      "name": "transferFrom",
      "outputs": [],
      "stateMutability": "nonpayable",
      "type": "function"
    }
  ],
  "bytecode": "0x60806040523480156200001157600080fd5b5060405162001d2438038062001d2483398101604081905262000034916200016e565b604080518082018252601081526f4d657461766572736520546f6b656e7360801b6020808301918252835180850190945260048452631351551560e21b9084015281519192916200008891600091620000c8565b5080516200009e906001906020840190620000c8565b5050600c80546001600160a01b0319166001600160a01b03939093169290921790915550620001db565b828054620000d6906200019e565b90600052602060002090601f016020900481019282620000fa576000855562000145565b82601f106200011557805160ff191683800117855562000145565b8280016001018555821562000145579182015b828111156200014557825182559160200191906001019062000128565b506200015392915062000157565b5090565b5b8082111562000153576000815560010162000158565b60006020828403121562000180578081fd5b81516001600160a01b038116811462000197578182fd5b9392505050565b600181811c90821680620001b357607f821691505b60208210811415620001d557634e487b7160e01b600052602260045260246000fd5b50919050565b611b3980620001eb6000396000f3fe608060405234801561001057600080fd5b506004361061010b5760003560e01c806345576f94116100a257806395d89b411161007157806395d89b4114610224578063a22cb4651461022c578063b88d4fde1461023f578063c87b56dd14610252578063e985e9c51461026557600080fd5b806345576f94146101d85780634f6ccce7146101eb5780636352211e146101fe57806370a082311461021157600080fd5b806318160ddd116100de57806318160ddd1461018d57806323b872dd1461019f5780632f745c59146101b257806342842e0e146101c557600080fd5b806301ffc9a71461011057806306fdde0314610138578063081812fc1461014d578063095ea7b314610178575b600080fd5b61012361011e3660046117eb565b6102a1565b60405190151581526020015b60405180910390f35b6101406102b2565b60405161012f9190611919565b61016061015b366004611869565b610344565b6040516001600160a01b03909116815260200161012f565b61018b6101863660046117c2565b6103d1565b005b6008545b60405190815260200161012f565b61018b6101ad3660046116d4565b6104e7565b6101916101c03660046117c2565b610518565b61018b6101d33660046116d4565b6105ae565b6101916101e6366004611823565b6105c9565b6101916101f9366004611869565b610611565b61016061020c366004611869565b6106b2565b61019161021f366004611688565b610729565b6101406107b0565b61018b61023a366004611788565b6107bf565b61018b61024d36600461170f565b6107ce565b610140610260366004611869565b610806565b6101236102733660046116a2565b6001600160a01b03918216600090815260056020908152604080832093909416825291909152205460ff1690565b60006102ac82610811565b92915050565b6060600080546102c190611a3e565b80601f01602080910402602001604051908101604052809291908181526020018280546102ed90611a3e565b801561033a5780601f1061030f5761010080835404028352916020019161033a565b820191906000526020600020905b81548152906001019060200180831161031d57829003601f168201915b5050505050905090565b600061034f82610836565b6103b55760405162461bcd60e51b815260206004820152602c60248201527f4552433732313a20617070726f76656420717565727920666f72206e6f6e657860448201526b34b9ba32b73a103a37b5b2b760a11b60648201526084015b60405180910390fd5b506000908152600460205260409020546001600160a01b031690565b60006103dc826106b2565b9050806001600160a01b0316836001600160a01b0316141561044a5760405162461bcd60e51b815260206004820152602160248201527f4552433732313a20617070726f76616c20746f2063757272656e74206f776e656044820152603960f91b60648201526084016103ac565b336001600160a01b038216148061046657506104668133610273565b6104d85760405162461bcd60e51b815260206004820152603860248201527f4552433732313a20617070726f76652063616c6c6572206973206e6f74206f7760448201527f6e6572206e6f7220617070726f76656420666f7220616c6c000000000000000060648201526084016103ac565b6104e28383610853565b505050565b6104f133826108c1565b61050d5760405162461bcd60e51b81526004016103ac9061197e565b6104e28383836109ab565b600061052383610729565b82106105855760405162461bcd60e51b815260206004820152602b60248201527f455243373231456e756d657261626c653a206f776e657220696e646578206f7560448201526a74206f6620626f756e647360a81b60648201526084016103ac565b506001600160a01b03919091166000908152600660209081526040808320938352929052205490565b6104e2838383604051806020016040528060008152506107ce565b60006105d9600b80546001019055565b60006105e4600b5490565b90506105f03382610b56565b6105fa8184610c95565b600c546102ac906001600160a01b031660016107bf565b600061061c60085490565b821061067f5760405162461bcd60e51b815260206004820152602c60248201527f455243373231456e756d657261626c653a20676c6f62616c20696e646578206f60448201526b7574206f6620626f756e647360a01b60648201526084016103ac565b600882815481106106a057634e487b7160e01b600052603260045260246000fd5b90600052602060002001549050919050565b6000818152600260205260408120546001600160a01b0316806102ac5760405162461bcd60e51b815260206004820152602960248201527f4552433732313a206f776e657220717565727920666f72206e6f6e657869737460448201526832b73a103a37b5b2b760b91b60648201526084016103ac565b60006001600160a01b0382166107945760405162461bcd60e51b815260206004820152602a60248201527f4552433732313a2062616c616e636520717565727920666f7220746865207a65604482015269726f206164647265737360b01b60648201526084016103ac565b506001600160a01b031660009081526003602052604090205490565b6060600180546102c190611a3e565b6107ca338383610d20565b5050565b6107d833836108c1565b6107f45760405162461bcd60e51b81526004016103ac9061197e565b61080084848484610def565b50505050565b60606102ac82610e22565b60006001600160e01b0319821663780e9d6360e01b14806102ac57506102ac82610f91565b6000908152600260205260409020546001600160a01b0316151590565b600081815260046020526040902080546001600160a01b0319166001600160a01b0384169081179091558190610888826106b2565b6001600160a01b03167f8c5be1e5ebec7d5bd14f71427d1e84f3dd0314c0f7b2291e5b200ac8c7c3b92560405160405180910390a45050565b60006108cc82610836565b61092d5760405162461bcd60e51b815260206004820152602c60248201527f4552433732313a206f70657261746f7220717565727920666f72206e6f6e657860448201526b34b9ba32b73a103a37b5b2b760a11b60648201526084016103ac565b6000610938836106b2565b9050806001600160a01b0316846001600160a01b031614806109735750836001600160a01b031661096884610344565b6001600160a01b0316145b806109a357506001600160a01b0380821660009081526005602090815260408083209388168352929052205460ff165b949350505050565b826001600160a01b03166109be826106b2565b6001600160a01b031614610a265760405162461bcd60e51b815260206004820152602960248201527f4552433732313a207472616e73666572206f6620746f6b656e2074686174206960448201526839903737ba1037bbb760b91b60648201526084016103ac565b6001600160a01b038216610a885760405162461bcd60e51b8152602060048201526024808201527f4552433732313a207472616e7366657220746f20746865207a65726f206164646044820152637265737360e01b60648201526084016103ac565b610a93838383610fe1565b610a9e600082610853565b6001600160a01b0383166000908152600360205260408120805460019290610ac79084906119fb565b90915550506001600160a01b0382166000908152600360205260408120805460019290610af59084906119cf565b909155505060008181526002602052604080822080546001600160a01b0319166001600160a01b0386811691821790925591518493918716917fddf252ad1be2c89b69c2b068fc378daa952ba7f163c4a11628f55a4df523b3ef91a4505050565b6001600160a01b038216610bac5760405162461bcd60e51b815260206004820181905260248201527f4552433732313a206d696e7420746f20746865207a65726f206164647265737360448201526064016103ac565b610bb581610836565b15610c025760405162461bcd60e51b815260206004820152601c60248201527f4552433732313a20746f6b656e20616c7265616479206d696e7465640000000060448201526064016103ac565b610c0e60008383610fe1565b6001600160a01b0382166000908152600360205260408120805460019290610c379084906119cf565b909155505060008181526002602052604080822080546001600160a01b0319166001600160a01b03861690811790915590518392907fddf252ad1be2c89b69c2b068fc378daa952ba7f163c4a11628f55a4df523b3ef908290a45050565b610c9e82610836565b610d015760405162461bcd60e51b815260206004820152602e60248201527f45524337323155524953746f726167653a2055524920736574206f66206e6f6e60448201526d32bc34b9ba32b73a103a37b5b2b760911b60648201526084016103ac565b6000828152600a6020908152604090912082516104e29284019061155d565b816001600160a01b0316836001600160a01b03161415610d825760405162461bcd60e51b815260206004820152601960248201527f4552433732313a20617070726f766520746f2063616c6c65720000000000000060448201526064016103ac565b6001600160a01b03838116600081815260056020908152604080832094871680845294825291829020805460ff191686151590811790915591519182527f17307eab39ab6107e8899845ad3d59bd9653f200f220920489ca2b5937696c31910160405180910390a3505050565b610dfa8484846109ab565b610e0684848484610fec565b6108005760405162461bcd60e51b81526004016103ac9061192c565b6060610e2d82610836565b610e935760405162461bcd60e51b815260206004820152603160248201527f45524337323155524953746f726167653a2055524920717565727920666f72206044820152703737b732bc34b9ba32b73a103a37b5b2b760791b60648201526084016103ac565b6000828152600a602052604081208054610eac90611a3e565b80601f0160208091040260200160405190810160405280929190818152602001828054610ed890611a3e565b8015610f255780601f10610efa57610100808354040283529160200191610f25565b820191906000526020600020905b815481529060010190602001808311610f0857829003601f168201915b505050505090506000610f4360408051602081019091526000815290565b9050805160001415610f56575092915050565b815115610f88578082604051602001610f709291906118ad565b60405160208183030381529060405292505050919050565b6109a3846110f9565b60006001600160e01b031982166380ac58cd60e01b1480610fc257506001600160e01b03198216635b5e139f60e01b145b806102ac57506301ffc9a760e01b6001600160e01b03198316146102ac565b6104e28383836111d1565b60006001600160a01b0384163b156110ee57604051630a85bd0160e11b81526001600160a01b0385169063150b7a02906110309033908990889088906004016118dc565b602060405180830381600087803b15801561104a57600080fd5b505af192505050801561107a575060408051601f3d908101601f1916820190925261107791810190611807565b60015b6110d4573d8080156110a8576040519150601f19603f3d011682016040523d82523d6000602084013e6110ad565b606091505b5080516110cc5760405162461bcd60e51b81526004016103ac9061192c565b805181602001fd5b6001600160e01b031916630a85bd0160e11b1490506109a3565b506001949350505050565b606061110482610836565b6111685760405162461bcd60e51b815260206004820152602f60248201527f4552433732314d657461646174613a2055524920717565727920666f72206e6f60448201526e3732bc34b9ba32b73a103a37b5b2b760891b60648201526084016103ac565b600061117f60408051602081019091526000815290565b9050600081511161119f57604051806020016040528060008152506111ca565b806111a984611289565b6040516020016111ba9291906118ad565b6040516020818303038152906040525b9392505050565b6001600160a01b03831661122c5761122781600880546000838152600960205260408120829055600182018355919091527ff3f7a9fe364faab93b216da50a3214154f22a0a2b415b23a84c8169e8b636ee30155565b61124f565b816001600160a01b0316836001600160a01b03161461124f5761124f83826113a3565b6001600160a01b038216611266576104e281611440565b826001600160a01b0316826001600160a01b0316146104e2576104e28282611519565b6060816112ad5750506040805180820190915260018152600360fc1b602082015290565b8160005b81156112d757806112c181611a79565b91506112d09050600a836119e7565b91506112b1565b60008167ffffffffffffffff81111561130057634e487b7160e01b600052604160045260246000fd5b6040519080825280601f01601f19166020018201604052801561132a576020820181803683370190505b5090505b84156109a35761133f6001836119fb565b915061134c600a86611a94565b6113579060306119cf565b60f81b81838151811061137a57634e487b7160e01b600052603260045260246000fd5b60200101906001600160f81b031916908160001a90535061139c600a866119e7565b945061132e565b600060016113b084610729565b6113ba91906119fb565b60008381526007602052604090205490915080821461140d576001600160a01b03841660009081526006602090815260408083208584528252808320548484528184208190558352600790915290208190555b5060009182526007602090815260408084208490556001600160a01b039094168352600681528383209183525290812055565b600854600090611452906001906119fb565b6000838152600960205260408120546008805493945090928490811061148857634e487b7160e01b600052603260045260246000fd5b9060005260206000200154905080600883815481106114b757634e487b7160e01b600052603260045260246000fd5b60009182526020808320909101929092558281526009909152604080822084905585825281205560088054806114fd57634e487b7160e01b600052603160045260246000fd5b6001900381819060005260206000200160009055905550505050565b600061152483610729565b6001600160a01b039093166000908152600660209081526040808320868452825280832085905593825260079052919091209190915550565b82805461156990611a3e565b90600052602060002090601f01602090048101928261158b57600085556115d1565b82601f106115a457805160ff19168380011785556115d1565b828001600101855582156115d1579182015b828111156115d15782518255916020019190600101906115b6565b506115dd9291506115e1565b5090565b5b808211156115dd57600081556001016115e2565b600067ffffffffffffffff8084111561161157611611611ad4565b604051601f8501601f19908116603f0116810190828211818310171561163957611639611ad4565b8160405280935085815286868601111561165257600080fd5b858560208301376000602087830101525050509392505050565b80356001600160a01b038116811461168357600080fd5b919050565b600060208284031215611699578081fd5b6111ca8261166c565b600080604083850312156116b4578081fd5b6116bd8361166c565b91506116cb6020840161166c565b90509250929050565b6000806000606084860312156116e8578081fd5b6116f18461166c565b92506116ff6020850161166c565b9150604084013590509250925092565b60008060008060808587031215611724578081fd5b61172d8561166c565b935061173b6020860161166c565b925060408501359150606085013567ffffffffffffffff81111561175d578182fd5b8501601f8101871361176d578182fd5b61177c878235602084016115f6565b91505092959194509250565b6000806040838503121561179a578182fd5b6117a38361166c565b9150602083013580151581146117b7578182fd5b809150509250929050565b600080604083850312156117d4578182fd5b6117dd8361166c565b946020939093013593505050565b6000602082840312156117fc578081fd5b81356111ca81611aea565b600060208284031215611818578081fd5b81516111ca81611aea565b600060208284031215611834578081fd5b813567ffffffffffffffff81111561184a578182fd5b8201601f8101841361185a578182fd5b6109a3848235602084016115f6565b60006020828403121561187a578081fd5b5035919050565b60008151808452611899816020860160208601611a12565b601f01601f19169290920160200192915050565b600083516118bf818460208801611a12565b8351908301906118d3818360208801611a12565b01949350505050565b6001600160a01b038581168252841660208201526040810183905260806060820181905260009061190f90830184611881565b9695505050505050565b6020815260006111ca6020830184611881565b60208082526032908201527f4552433732313a207472616e7366657220746f206e6f6e20455243373231526560408201527131b2b4bb32b91034b6b83632b6b2b73a32b960711b606082015260800190565b60208082526031908201527f4552433732313a207472616e736665722063616c6c6572206973206e6f74206f6040820152701ddb995c881b9bdc88185c1c1c9bdd9959607a1b606082015260800190565b600082198211156119e2576119e2611aa8565b500190565b6000826119f6576119f6611abe565b500490565b600082821015611a0d57611a0d611aa8565b500390565b60005b83811015611a2d578181015183820152602001611a15565b838111156108005750506000910152565b600181811c90821680611a5257607f821691505b60208210811415611a7357634e487b7160e01b600052602260045260246000fd5b50919050565b6000600019821415611a8d57611a8d611aa8565b5060010190565b600082611aa357611aa3611abe565b500690565b634e487b7160e01b600052601160045260246000fd5b634e487b7160e01b600052601260045260246000fd5b634e487b7160e01b600052604160045260246000fd5b6001600160e01b031981168114611b0057600080fd5b5056fea26469706673582212200179e2d526e94b8e71a2c0d0f30ff67fb3a58cee40b380ebd5f80e62bf036c8564736f6c63430008040033",
  "linkReferences": {},
  "deployedLinkReferences": {}
}