{
  "_format": "hh-sol-artifact-1",
  "contractName": "NFTMarket",
  "sourceName": "contracts/NFTMarket.sol",
  "abi": [
    {
      "inputs": [],
      "stateMutability": "nonpayable",
      "type": "constructor"
    },
    {
      "anonymous": false,
      "inputs": [
        {
          "indexed": true,
          "internalType": "uint256",
          "name": "itemId",
          "type": "uint256"
        },
        {
          "indexed": true,
          "internalType": "address",
          "name": "nftContract",
          "type": "address"
        },
        {
          "indexed": true,
          "internalType": "uint256",
          "name": "tokenId",
          "type": "uint256"
        },
        {
          "indexed": false,
          "internalType": "address",
          "name": "seller",
          "type": "address"
        },
        {
          "indexed": false,
          "internalType": "address",
          "name": "owner",
          "type": "address"
        },
        {
          "indexed": false,
          "internalType": "uint256",
          "name": "price",
          "type": "uint256"
        },
        {
          "indexed": false,
          "internalType": "bool",
          "name": "sold",
          "type": "bool"
        }
      ],
      "name": "MarketItemCreated",
      "type": "event"
    },
    {
      "inputs": [
        {
          "internalType": "address",
          "name": "nftContract",
          "type": "address"
        },
        {
          "internalType": "uint256",
          "name": "tokenId",
          "type": "uint256"
        },
        {
          "internalType": "uint256",
          "name": "price",
          "type": "uint256"
        }
      ],
      "name": "createMarketItem",
      "outputs": [],
      "stateMutability": "payable",
      "type": "function"
    },
    {
      "inputs": [
        {
          "internalType": "address",
          "name": "nftContract",
          "type": "address"
        },
        {
          "internalType": "uint256",
          "name": "itemId",
          "type": "uint256"
        }
      ],
      "name": "createMarketSale",
      "outputs": [],
      "stateMutability": "payable",
      "type": "function"
    },
    {
      "inputs": [],
      "name": "fetchItemsCreated",
      "outputs": [
        {
          "components": [
            {
              "internalType": "uint256",
              "name": "itemId",
              "type": "uint256"
            },
            {
              "internalType": "address",
              "name": "nftContract",
              "type": "address"
            },
            {
              "internalType": "uint256",
              "name": "tokenId",
              "type": "uint256"
            },
            {
              "internalType": "address payable",
              "name": "seller",
              "type": "address"
            },
            {
              "internalType": "address payable",
              "name": "owner",
              "type": "address"
            },
            {
              "internalType": "uint256",
              "name": "price",
              "type": "uint256"
            },
            {
              "internalType": "bool",
              "name": "sold",
              "type": "bool"
            }
          ],
          "internalType": "struct NFTMarket.MarketItem[]",
          "name": "",
          "type": "tuple[]"
        }
      ],
      "stateMutability": "view",
      "type": "function"
    },
    {
      "inputs": [
        {
          "internalType": "uint256",
          "name": "itemId",
          "type": "uint256"
        }
      ],
      "name": "fetchMarketItem",
      "outputs": [
        {
          "components": [
            {
              "internalType": "uint256",
              "name": "itemId",
              "type": "uint256"
            },
            {
              "internalType": "address",
              "name": "nftContract",
              "type": "address"
            },
            {
              "internalType": "uint256",
              "name": "tokenId",
              "type": "uint256"
            },
            {
              "internalType": "address payable",
              "name": "seller",
              "type": "address"
            },
            {
              "internalType": "address payable",
              "name": "owner",
              "type": "address"
            },
            {
              "internalType": "uint256",
              "name": "price",
              "type": "uint256"
            },
            {
              "internalType": "bool",
              "name": "sold",
              "type": "bool"
            }
          ],
          "internalType": "struct NFTMarket.MarketItem[]",
          "name": "",
          "type": "tuple[]"
        }
      ],
      "stateMutability": "view",
      "type": "function"
    },
    {
      "inputs": [],
      "name": "fetchMarketItems",
      "outputs": [
        {
          "components": [
            {
              "internalType": "uint256",
              "name": "itemId",
              "type": "uint256"
            },
            {
              "internalType": "address",
              "name": "nftContract",
              "type": "address"
            },
            {
              "internalType": "uint256",
              "name": "tokenId",
              "type": "uint256"
            },
            {
              "internalType": "address payable",
              "name": "seller",
              "type": "address"
            },
            {
              "internalType": "address payable",
              "name": "owner",
              "type": "address"
            },
            {
              "internalType": "uint256",
              "name": "price",
              "type": "uint256"
            },
            {
              "internalType": "bool",
              "name": "sold",
              "type": "bool"
            }
          ],
          "internalType": "struct NFTMarket.MarketItem[]",
          "name": "",
          "type": "tuple[]"
        }
      ],
      "stateMutability": "view",
      "type": "function"
    },
    {
      "inputs": [],
      "name": "fetchMyNFTs",
      "outputs": [
        {
          "components": [
            {
              "internalType": "uint256",
              "name": "itemId",
              "type": "uint256"
            },
            {
              "internalType": "address",
              "name": "nftContract",
              "type": "address"
            },
            {
              "internalType": "uint256",
              "name": "tokenId",
              "type": "uint256"
            },
            {
              "internalType": "address payable",
              "name": "seller",
              "type": "address"
            },
            {
              "internalType": "address payable",
              "name": "owner",
              "type": "address"
            },
            {
              "internalType": "uint256",
              "name": "price",
              "type": "uint256"
            },
            {
              "internalType": "bool",
              "name": "sold",
              "type": "bool"
            }
          ],
          "internalType": "struct NFTMarket.MarketItem[]",
          "name": "",
          "type": "tuple[]"
        }
      ],
      "stateMutability": "view",
      "type": "function"
    },
    {
      "inputs": [],
      "name": "getListingPrice",
      "outputs": [
        {
          "internalType": "uint256",
          "name": "",
          "type": "uint256"
        }
      ],
      "stateMutability": "view",
      "type": "function"
    }
  ],
  "bytecode": "0x60806040526608e1bc9bf0400060045534801561001b57600080fd5b506001600055600380546001600160a01b03191633179055610e50806100426000396000f3fe6080604052600436106100705760003560e01c80632a45b2501161004e5780632a45b250146100d357806358eb2df5146100f3578063c23b139e14610108578063f064c32e1461011b57600080fd5b80630f08efe01461007557806312e85585146100a0578063202e3740146100be575b600080fd5b34801561008157600080fd5b5061008a610130565b6040516100979190610d26565b60405180910390f35b3480156100ac57600080fd5b50600454604051908152602001610097565b3480156100ca57600080fd5b5061008a6102d8565b3480156100df57600080fd5b5061008a6100ee366004610d0e565b6104be565b610106610101366004610cdc565b6105b9565b005b610106610116366004610cb3565b610859565b34801561012757600080fd5b5061008a610a75565b6060600061013d60015490565b9050600061014a60025490565b6001546101579190610dd2565b90506000808267ffffffffffffffff81111561018357634e487b7160e01b600052604160045260246000fd5b6040519080825280602002602001820160405280156101bc57816020015b6101a9610c5b565b8152602001906001900390816101a15790505b50905060005b848110156102cf5760006005816101da846001610dba565b81526020810191909152604001600020600401546001600160a01b031614156102bd57600061020a826001610dba565b600081815260056020818152604092839020835160e0810185528154815260018201546001600160a01b0390811693820193909352600282015494810194909452600381015482166060850152600481015490911660808401529081015460a0830152600681015460ff16151560c08301528551929350918590879081106102a257634e487b7160e01b600052603260045260246000fd5b60209081029190910101526102b8600186610dba565b945050505b806102c781610de9565b9150506101c2565b50949350505050565b606060006102e560015490565b905060008060005b83811015610348573360056000610305846001610dba565b81526020810191909152604001600020600401546001600160a01b0316141561033657610333600184610dba565b92505b8061034081610de9565b9150506102ed565b5060008267ffffffffffffffff81111561037257634e487b7160e01b600052604160045260246000fd5b6040519080825280602002602001820160405280156103ab57816020015b610398610c5b565b8152602001906001900390816103905790505b50905060005b848110156102cf5733600560006103c9846001610dba565b81526020810191909152604001600020600401546001600160a01b031614156104ac5760006103f9826001610dba565b600081815260056020818152604092839020835160e0810185528154815260018201546001600160a01b0390811693820193909352600282015494810194909452600381015482166060850152600481015490911660808401529081015460a0830152600681015460ff16151560c083015285519293509185908790811061049157634e487b7160e01b600052603260045260246000fd5b60209081029190910101526104a7600186610dba565b945050505b806104b681610de9565b9150506103b1565b60408051600180825281830190925260609160009190816020015b6104e1610c5b565b8152602001906001900390816104d95750506000848152600560205260409020600401549091506001600160a01b03166105b3576000838152600560208181526040808420815160e0810183528154815260018201546001600160a01b0390811694820194909452600282015492810192909252600381015483166060830152600481015490921660808201529181015460a0830152600681015460ff16151560c08301528351909284916105a657634e487b7160e01b600052603260045260246000fd5b6020026020010181905250505b92915050565b600260005414156106115760405162461bcd60e51b815260206004820152601f60248201527f5265656e7472616e637947756172643a207265656e7472616e742063616c6c0060448201526064015b60405180910390fd5b6002600055806106635760405162461bcd60e51b815260206004820152601c60248201527f5072696365206d757374206265206174206c65617374203120776569000000006044820152606401610608565b60045434146106c05760405162461bcd60e51b8152602060048201526024808201527f5072696365206d75737420626520657175616c20746f206c697374696e6720706044820152637269636560e01b6064820152608401610608565b6106ce600180546001019055565b60006106d960015490565b6040805160e0810182528281526001600160a01b0387811660208084018281528486018a8152336060870181815260006080890181815260a08a018e815260c08b018381528d8452600598899052928c90209a518b55955160018b018054918b166001600160a01b0319928316179055945160028b0155915160038a018054918a1691861691909117905590516004808a01805492909916919094161790965591519286019290925592516006909401805494151560ff199095169490941790935592516323b872dd60e01b81529182015230602482015260448101869052919250906323b872dd90606401600060405180830381600087803b1580156107df57600080fd5b505af11580156107f3573d6000803e3d6000fd5b505060408051338152600060208201819052818301879052606082015290518693506001600160a01b038816925084917f045dfa01dcba2b36aba1d3dc4a874f4b0c5d2fbeb8d2c4b34a7d88c8d8f929d1919081900360800190a4505060016000555050565b600260005414156108ac5760405162461bcd60e51b815260206004820152601f60248201527f5265656e7472616e637947756172643a207265656e7472616e742063616c6c006044820152606401610608565b6002600081815582815260056020819052604090912090810154910154348214610940576040805162461bcd60e51b81526020600482015260248101919091527f506c65617365207375626d6974207468652061736b696e67207072696365206960448201527f6e206f7264657220746f20636f6d706c657465207468652070757263686173656064820152608401610608565b6000838152600560205260408082206003015490516001600160a01b03909116913480156108fc02929091818181858888f19350505050158015610988573d6000803e3d6000fd5b506040516323b872dd60e01b8152306004820152336024820152604481018290526001600160a01b038516906323b872dd90606401600060405180830381600087803b1580156109d757600080fd5b505af11580156109eb573d6000803e3d6000fd5b50505060008481526005602052604090206004810180546001600160a01b03191633179055600601805460ff1916600117905550610a2d600280546001019055565b6003546004546040516001600160a01b039092169181156108fc0291906000818181858888f19350505050158015610a69573d6000803e3d6000fd5b50506001600055505050565b60606000610a8260015490565b905060008060005b83811015610ae5573360056000610aa2846001610dba565b81526020810191909152604001600020600301546001600160a01b03161415610ad357610ad0600184610dba565b92505b80610add81610de9565b915050610a8a565b5060008267ffffffffffffffff811115610b0f57634e487b7160e01b600052604160045260246000fd5b604051908082528060200260200182016040528015610b4857816020015b610b35610c5b565b815260200190600190039081610b2d5790505b50905060005b848110156102cf573360056000610b66846001610dba565b81526020810191909152604001600020600301546001600160a01b03161415610c49576000610b96826001610dba565b600081815260056020818152604092839020835160e0810185528154815260018201546001600160a01b0390811693820193909352600282015494810194909452600381015482166060850152600481015490911660808401529081015460a0830152600681015460ff16151560c0830152855192935091859087908110610c2e57634e487b7160e01b600052603260045260246000fd5b6020908102919091010152610c44600186610dba565b945050505b80610c5381610de9565b915050610b4e565b6040805160e081018252600080825260208201819052918101829052606081018290526080810182905260a0810182905260c081019190915290565b80356001600160a01b0381168114610cae57600080fd5b919050565b60008060408385031215610cc5578182fd5b610cce83610c97565b946020939093013593505050565b600080600060608486031215610cf0578081fd5b610cf984610c97565b95602085013595506040909401359392505050565b600060208284031215610d1f578081fd5b5035919050565b602080825282518282018190526000919060409081850190868401855b82811015610dad57815180518552868101516001600160a01b039081168887015286820151878701526060808301518216908701526080808301519091169086015260a0808201519086015260c09081015115159085015260e09093019290850190600101610d43565b5091979650505050505050565b60008219821115610dcd57610dcd610e04565b500190565b600082821015610de457610de4610e04565b500390565b6000600019821415610dfd57610dfd610e04565b5060010190565b634e487b7160e01b600052601160045260246000fdfea2646970667358221220c5ab6feb39bb01110be15106a2ad22cc0a398f88292ff52c7aae013c4b4092a464736f6c63430008040033",
  "linkReferences": {},
  "deployedLinkReferences": {}
}